:020000040800F2
:100000000050002021020008B1250008B325000897
:10001000B5250008B7250008B92500080000000034
:10002000000000000000000000000000BB250008E8
:10003000BD25000800000000BF250008C1250008FC
:1000400045230008452300084523000845230008F0
:1000500045230008452300084523000845230008E0
:1000600045230008452300084523000845230008D0
:1000700045230008452300084523000845230008C0
:1000800045230008452300084523000845230008B0
:10009000CD25000845230008452300084523000816
:1000A0004523000845230008452300084523000890
:1000B0004523000845230008452300084523000880
:1000C0004523000845230008452300084523000870
:1000D0004523000845230008452300084523000860
:1000E00045230008452300084523000800000000C0
:1000F0000000000000000000000000000000000000
:1001000000000000000000005FF808F100B583B0B7
:1001100002F07EF8304B314A1360314A1360314BA4
:10012000314A03E011681960043304322F498B42CD
:10013000F8D32A4B1A682E4B9A4200D0FEE7284B80
:100140001A682C4B9A42F9D1234B2B4A13602B4A45
:1001500013602B4B02E000221A600433294A9342B9
:10016000F9D3254B1B6813B9244B1B6803B1FEE779
:1001700002F05AF8694601A801F0F6FF224B234C21
:10018000E41AA4100025AC4214DC214B214CE41AE3
:10019000A4100025AC4213DC0099019802F0AEF9DE
:1001A00005461D4B1D4CE41AA410002C0EDC2846FD
:1001B00001F0B6FF144B53F8253098470135E2E7BC
:1001C000134B53F8253098470135E3E7013C124BB8
:1001D00053F824309847E8E7BABADECA0000002096
:1001E000C801002000000020443F0008CC0100208E
:1001F0007856341232547698CC010020D80C002066
:10020000CC010020DC0C00207403000874030008FB
:1002100074030008740300087403000874030008E2
:1002200008B5FFF773FF00BEFEE71EF0040F0CBF1A
:10023000EFF30880EFF309807146414A10472DE93A
:10024000F04182B004468846124B5E6B9F6B9D6AFC
:100250001B6B13F0020F03D00E4BDB6A002B0CDB81
:100260000D4801F089FFCDF800803B463246294613
:10027000204601F0DDFF00BEFEE74BF6AB6102F069
:1002800051F80028ECD04FF00042024BDA6202B085
:10029000BDE8F08100ED00E0243E000800BEFEE76E
:1002A0001EF0040F0CBFEFF30880EFF309807146D6
:1002B000244A10472DE9F04182B004468846084B95
:1002C0005E6B9F6B9D6A074801F056FFCDF800807A
:1002D0003B4632462946204601F0AAFF00BEFEE713
:1002E00000ED00E0343E00081EF0040F0CBFEFF3F9
:1002F0000880EFF309807146134A10472DE9F04159
:1003000082B004468846084B5E6B9F6B9D6A074827
:1003100001F032FFCDF800803B46324629462046A8
:1003200001F086FF00BEFEE700ED00E0403E000861
:1003300000BEFEE700BEFEE700BEFEE7704700001D
:0C0340003F020008B5020008FD020008A2
:10034C00443F000800000020CC010020443F00087E
:10035C000000001000000010CC010020DC0C00207C
:08036C00000000100000001069
:1003740010B5044601F06CF9064BA3FB003080096C
:1003840000F088F8002221464FF0FF3000F044F8D6
:10039400002010BDD34D621008B5074A136843F01E
:1003A40010031360032000F025F80020FFF7E0FF9E
:1003B40002F0BEF8002008BD00200240024A136883
:1003C40001331360704700BFD0010020014B18684F
:1003D400704700BFD001002010B582B00190FFF734
:1003E400F5FF0446FFF7F2FF001B019B9842F9D387
:1003F40002B010BD074AD36823F4E0631B041B0C4E
:10040400000200F4E060184340F0BF6040F40030A4
:10041400D060704700ED00E030B4164BDB68C3F3E6
:100424000223C3F10704042C28BF04241D1D062D38
:1004340017D9033B012505FA04F4013C21409940F6
:1004440005FA03F3013B1340194300280BDB0901B0
:10045400C9B200F1604000F5614080F8001330BC7F
:1004640070470023E6E700F00F000901C9B2024B10
:100474001954F4E700ED00E014ED00E0420900F047
:100484001F00012303FA00F0014B43F822007047D8
:1004940000E100E00138B0F1807F0AD2064B5860D9
:1004A400F021064A82F823100020986007221A607F
:1004B40070470120704700BF10E000E000ED00E04D
:1004C400042805D0054A136823F004031360704719
:1004D400024A136843F004031360704710E000E01D
:1004E400704708B5FFF7FCFF08BD002866D0F0B5DB
:1004F40087B0044690F8E933C3B1032384F8E933A1
:10050400206801F057F9254655F8107B6E460FCD4B
:100514000FC62B683360231D0ECB384601F03AF921
:100524000021206801F050F9002315E080F8E83339
:1005340002F0AAF8E1E704EB4312012182F8291042
:1005440082F828309386002182F82B109163D163BE
:100554009A1C5201A15001330E2BECD9002312E056
:1005640004EB4312002182F8091282F808329386C0
:1005740082F80B12C2F81812C2F81C1203F111020D
:100584005201A15001330E2BEAD9254655F8107BB0
:100594006E460FCD0FC62B683360231D0ECB384635
:1005A40001F014F9002584F82450012384F8E93378
:1005B400206801F021FC284607B0F0BD01207047F7
:1005C40090F8E833012B01D10220704710B504469E
:1005D400012180F8E81302F096F9206801F00AFC82
:1005E400206801F0DEF8002084F8E80310BD90F8DC
:1005F400E833012B01D10220704710B504460123D2
:1006040080F8E83380F82410006801F0EDFB002046
:1006140084F8E80310BD38B54DB2002D12DB01F0AB
:100624007F04640104F50274044401F07F01217025
:10063400ED0F65702261E37090F8E833012B07D168
:10064400022038BD01F07F04640128340444ECE73F
:100654000546012380F8E8332146006801F0C9F813
:10066400002085F8E80338BD4AB2002A10DB01F007
:100674007F035B0103F50273034401F07F011970EA
:10068400D20F5A7090F8E823012A07D1022070474C
:1006940001F07F035B0128330344EEE710B5044601
:1006A400012280F8E8231946006801F03BFA002093
:1006B40084F8E80310BD70B501F07F056C0104F502
:1006C400027101440444C4F81C2205F111025201D0
:1006D400861883500023736084F8093284F8085222
:1006E40090F8E833012B0FD00446012380F8E83357
:1006F40035B9006801F09DFB002084F8E80370BD63
:10070400006801F096FBF7E7022070BD01F07F015D
:10071400113100EB41118888704770B501F07F05F5
:100724006C0104F1280101440444E263AA1C52014F
:100734008618835000237360012384F8293084F8D9
:10074400285090F8E833012B0FD00446012380F899
:10075400E83335B9006801F06CFB002084F8E80345
:1007640070BD006801F065FBF7E7022070BD70B54D
:1007740082B005460023ADF80630ADF8043095E1AB
:1007840003889BB223F4E14323F070039BB20380FC
:100794002A68B2F850309BB295F8281003EBC103D5
:1007A400023302EB4303D3F80034C3F309036B644D
:1007B400EA6B1344EB630021284601F097FF95F898
:1007C4002430002B00F072812B6C002B40F06E81E2
:1007D4002A6895F8243043F08003A2F84C300023B3
:1007E40085F8243062E1B0F850309BB295F80822C5
:1007F40003EBC203063300EB4303D3F80034C3F323
:100804000903C5F82432B5F80C2205F57B7101F013
:1008140076FC2A68138823F070031B051B0D1380D4
:10082400284601F051FF41E1B5F80C22D5F81C121D
:1008340001F065FCD5F82422D5F81C321344C5F820
:100844001C3272E1C1F34F0211F0010F01D00132E9
:1008540092B2920292B2C3F8002484E130F82430B8
:100864009BB2ADF80430BDF8043013F4004F36D118
:10087400BDF8043013F0800F00F018812A6832F8B4
:1008840024309BB223F4E14323F070039BB222F89B
:10089400243005EB441393F83230002B40F0B6803B
:1008A4002868B0F850309BB205EB441292F8282027
:1008B40003EBC203023300EB4303D3F80034C3F366
:1008C4000903A21C05EB42125360002B00F0CD80FB
:1008D40005EB44118A8DC96B01F096FAC5E030F836
:1008E400243023F070031B051B0D20F8243005EB86
:1008F400441393F81232DBB92868B0F850309BB235
:1009040005EB441292F8082203EBC203063300EB12
:100914004303B3F80064C6F309068EB305EB441130
:100924003346B1F80C22D1F81C1201F0E8FB27E0A1
:10093400286805EB441393F8082230F8223013F4A6
:10094400804F43D0B0F850309BB203EBC203023364
:1009540000EB4303B3F80064C6F3090666BB2A68D8
:1009640005EB441393F8081232F8213023F0F00316
:100974001B051B0D43F4004343F0C00322F8213050
:1009840004F111035B01E9184A6832444A6005EB3B
:100994004411D1F81C223244C1F81C22EB581BB17B
:1009A400D1F818128E4229D205EB441393F8081299
:1009B400284601F091FE5BE705EB44113346B1F89C
:1009C4000E22D1F81C1201F09AFBC8E7B0F850309F
:1009D4009BB203EBC203063300EB4303B3F800649A
:1009E400C6F30906002EBAD005EB44113346B1F81C
:1009F4001022D1F81C1201F082FBB0E705EB441180
:100A040091F808122846FFF756FE31E7286805EBEF
:100A1400441393F8282030F8223013F0400F00F0EC
:100A2400B880B0F850309BB203EBC203023300EB42
:100A34004303D3F80034C3F30903A21C05EB4212A9
:100A44005360002B40F09E802A6805EB441393F812
:100A5400281032F8213023F0F0031B051B0D43F45A
:100A6400404343F0800322F821302A68B2F8503022
:100A74009BB205EB441090F8281003EBC10302333A
:100A840002EB4303D3F80024C2F30902A31C5B0165
:100A9400E9184A60C16B0A44C263EB58002B40F06A
:100AA400928090F82810284601F020FE2868B0F8BB
:100AB40044309BB2ADF8063013F4004F00F08B8045
:100AC400BDF8064014F00F047FF4C8AEBDF806303C
:100AD40013F0100F3FF454AE03889BB2ADF804300A
:100AE400BDF8043013F4006F7FF47DAEBDF804301C
:100AF40013F4004FDAD0038823F070031B051B0D99
:100B040003802868B0F850309BB295F8082203EBB4
:100B1400C203063300EB4303D3F80034C3F30903E1
:100B2400C5F82432002B7FF47FAE0021284601F063
:100B3400D3FD2A68B2F850309BB2063302EB43036C
:100B4400D5F818123E297FF67DAEC1F34F1211F08D
:100B54001F0F01D1013A92B26FEAC2626FEA5242A8
:100B640092B2C3F800242A6813889BB223F480430A
:100B740023F0700383F4405343F4004343F08003B1
:100B8400138093E705EB4411CA8DC96B01F03CF95E
:100B94005AE7B0F850309BB203EBC203063300EBC4
:100BA4004303D3F80034C3F30903A21C05EB421238
:100BB4005360002B3FF448AF05EB44110A8EC96B18
:100BC40001F022F940E705EB441494F82810284674
:100BD400FFF7A3FD6AE7002002B070BD10B504461C
:100BE400006801F00BF910F4004F45D1206801F0C2
:100BF40005F910F4806F43D1206801F0FFF810F478
:100C0400804F08D02268B2F844309BB223F480436A
:100C14009BB2A2F84430206801F0F0F810F4005FB1
:100C240008D02268B2F844309BB223F400539BB23C
:100C3400A2F84430206801F0E1F810F4805F30D16C
:100C4400206801F0DBF810F4006F45D1206801F052
:100C5400D5F810F4007F62D1206801F0CFF810F4C9
:100C6400807F08D02268B2F844309BB223F48073AA
:100C74009BB2A2F8443010BD2046FFF778FDB5E7DB
:100C84002268B2F844309BB223F480639BB2A2F88A
:100C94004430204601F039FD00212046FFF7A7FC2F
:100CA400AAE72268B2F840309BB223F004039BB257
:100CB400A2F8403023684FF43D42A3F84020204678
:100CC40001F040FD2268B2F844309BB223F4805313
:100CD4009BB2A2F84430B3E72268B2F844309BB226
:100CE40023F400639BB2A2F844302268B2F8403087
:100CF4009BB243F00803A2F840302268B2F84030B7
:100D04009BB243F00403A2F84030206801F076F867
:100D140010F4805F9AD1204601F004FD96E7226822
:100D2400B2F844309BB223F400739BB2A2F844306F
:100D3400204601F0E4FC8FE738B54AB2002A10DB04
:100D44004B0103F50273034401249C7001F07F04FA
:100D54001C70D20F5A7090F8E823012A07D10220A0
:100D640038BD01F07F035B0128330344ECE70546FB
:100D7400012280F8E8231946006800F0B5FF1CB191
:100D8400002085F8E80338BD05F57B71286801F07B
:100D940039F8F5E710B54AB2002A10DB4B0103F528
:100DA4000273034400249C7001F07F011970D20F78
:100DB4005A7090F8E823012A07D1022010BD01F0EF
:100DC4007F035B0128330344ECE70446012280F8E7
:100DD400E8231946006800F0BEFF002084F8E80309
:100DE40010BD11F0800F0CD001F07F0149012831B2
:100DF40001445AB101228A72CB801B0C0B81002062
:100E04007047490101F502710144F2E78A728B804F
:100E1400F5E7000030B583B00446036813F0010F12
:100E24005CD0B04B5B6803F00C03042B3FD0AD4B9C
:100E34005B6803F00C03082B34D06368B3F5803F80
:100E440000F08780002B40F08A8003F1804303F593
:100E540004331A6822F480321A601A6822F4802259
:100E64001A606368002B00F09480FFF7AFFA054620
:100E74004FF4003393FAA3F39A4B1A684FF40033F8
:100E840093FAA3F3B3FA83F303F01F0322FA03F3F1
:100E940013F0010F22D1FFF799FA401B6428E7D918
:100EA40003209CE28F4B5B6813F4803FC5D04FF462
:100EB400003393FAA3F38B4B1A684FF4003393FA7D
:100EC400A3F3B3FA83F303F01F0322FA03F313F03B
:100ED400010F03D06368002B00F07A82236813F0BB
:100EE400020F00F09C807F4B5B6813F00C0F72D0F4
:100EF4007C4B5B6803F00C03082B67D02369002B41
:100F040000F0C880012292FAA2F3B3FA83F39B00A3
:100F140003F1844303F584031A60FFF757FA054687
:100F2400022393FAA3F36F4B1A68022393FAA3F3F1
:100F3400B3FA83F303F01F0322FA03F313F0010F50
:100F440040F09980FFF742FA401B0228E8D90320B9
:100F540045E2644A136843F48033136081E7B3F5D0
:100F6400A02F09D05F4B1A6822F480321A601A68E5
:100F740022F480221A6074E703F18043A3F53C3322
:100F84001A6842F480221A601A6842F480321A60A5
:100F940067E7FFF71BFA05464FF4003393FAA3F310
:100FA400504B1A684FF4003393FAA3F3B3FA83F364
:100FB40003F01F0322FA03F313F0010F8ED0FFF79F
:100FC40005FA401B6428E7D9032008E2454B5B6817
:100FD40013F4803F92D1022393FAA3F3414B1A688E
:100FE400022393FAA3F3B3FA83F303F01F0322FA61
:100FF40003F313F0010F04D02369012B01D0012066
:10100400EDE13848036823F0F8036169F82292FAA5
:10101400A2F2B2FA82F201FA02F2134303602368E5
:1010240013F0080F65D0A369002B00F09F80012204
:1010340092FAA2F3B3FA83F32B4941F82320FFF782
:10104400C5F90546022393FAA3F293FAA3F2254ABB
:10105400526A93FAA3F3B3FA83F303F01F0322FA59
:1010640003F313F0010F41D1FFF7B0F9401B02283D
:10107400E8D90320B3E11B48036823F0F80361694E
:10108400F82292FAA2F2B2FA82F201FA02F21343BD
:101094000360C4E7012393FAA3F3B3FA83F39B0039
:1010A40003F1844303F5840300221A60FFF78EF9E9
:1010B4000546022393FAA3F30A4B1A68022393FA10
:1010C400A3F3B3FA83F303F01F0322FA03F313F039
:1010D400010FA4D0FFF77AF9401B0228E9D90320B5
:1010E4007DE100BF00100240800442420120FFF76E
:1010F40073F9236813F0040F5DD1E369002B00F04A
:101104006D81B94A526802F00C02082A00F0698124
:10111400022B00F0F0804FF0807393FAA3F3B3FA3C
:1011240083F39B0003F1844303F5840300221A60D4
:10113400FFF74CF904464FF0007393FAA3F3AA4B5C
:101144001A684FF0007393FAA3F3B3FA83F303F02E
:101154001F0322FA03F313F0010F00F03781FFF7A6
:1011640035F9001B0228E6D9032038E1012393FA5C
:10117400A3F3B3FA83F300219C4A42F82310FFF748
:1011840025F90546022393FAA3F293FAA3F2964AA9
:10119400526A93FAA3F3B3FA83F303F01F0322FA18
:1011A40003F313F0010FA4D0FFF710F9401B02283A
:1011B400E8D9032013E18C4BDA6942F08052DA61FA
:1011C400DB6903F080530193019B894A136843F45C
:1011D40080731360FFF7FAF80546854B1B6813F418
:1011E400807F06D1FFF7F2F8401B6428F5D903206D
:1011F400F5E0E368012B13D0C3B903F1804303F591
:1012040004331A6A22F001021A621A6A22F00402F2
:101214001A62E368002B45D0FFF7D8F8054632E0A0
:10122400714A136A43F001031362F2E7052B09D0F4
:101234006D4B1A6A22F001021A621A6A22F0040241
:101244001A62E6E7684B1A6A42F004021A621A6AE2
:1012540042F001021A62DCE7634B1A6A022393FA32
:10126400A3F3B3FA83F303F01F0322FA03F313F097
:10127400010F7FF442AFFFF7A9F8401B41F2883316
:10128400984200F2A780022393FAA3F293FAA3F3FD
:10129400B3FA83F35B0943F00203022BDCD0524B15
:1012A4005A6ADBE7FFF792F8054615E04E4B1A6AD7
:1012B400022393FAA3F3B3FA83F303F01F0322FA8E
:1012C40003F313F0010F3FF418AFFFF77FF8401B4F
:1012D40041F2883398427FD8022393FAA3F293FA17
:1012E400A3F3B3FA83F35B0943F00203022BDDD0CB
:1012F4003D4B5A6ADCE74FF0807393FAA3F3B3FAD9
:1013040083F39B0003F1844303F5840300221A60F2
:10131400FFF75CF805464FF0007393FAA3F3324BE2
:101324001A684FF0007393FAA3F3B3FA83F303F04C
:101334001F0322FA03F313F0010F06D0FFF746F858
:10134400401B0228E7D9032049E0236AB3F5803F14
:1013540032D025494B6823F47413226A606A02432D
:1013640013434B604FF0807393FAA3F3B3FA83F300
:101374009B0003F1844303F5840301221A60FFF701
:1013840025F804464FF0007393FAA3F3164B1A683A
:101394004FF0007393FAA3F3B3FA83F303F01F033C
:1013A40022FA03F313F0010F0ED1FFF70FF8001B1D
:1013B4000228E7D9032012E00B4A536823F40033D0
:1013C400A1680B435360C4E7002008E0002006E056
:1013D400012004E0032002E0032000E0002003B029
:1013E40030BD0120FBE700BF0010024080044242F0
:1013F4000070004010B586B01C4C94E80F000DF14D
:10140400180E0EE90F00238AADF80430184B5B6800
:1014140003F00C02082A26D103F470124FF4701161
:1014240091FAA1F1B1FA81F1CA40724412F8100C98
:1014340013F4803F03D10F4B03FB00F014E00C4B7B
:101444005B6803F400334FF4003292FAA2F2B2FA6A
:1014540082F2D340734413F8142C074BB3FBF2F31A
:1014640003FB00F000E0044806B010BDF43C0008A3
:101474000010024000093D0000127A00704B1B6806
:1014840003F007038B420CD26D4A136823F0070361
:101494000B431360136803F00703994201D0012042
:1014A400704770B5036813F0020F06D0654A53689D
:1014B40023F0F0038468234353600D460446036815
:1014C40013F0010F7AD04368012B2FD0022B42D0A6
:1014D400022292FAA2F25B4A1168022292FAA2F262
:1014E400B2FA82F202F01F0221FA02F212F0010FA4
:1014F40000F0A48053494A6822F0030213434B606E
:10150400FEF764FF06466368012B39D0022B46D0F0
:101514004C4B5B6813F00C0F50D0FEF757FF801B49
:1015240041F288339842F3D9032070BD4FF400325E
:1015340092FAA2F2434A11684FF4003292FAA2F2EC
:10154400B2FA82F202F01F0221FA02F212F0010F43
:10155400D0D1012070BD4FF0007292FAA2F2394A44
:1015640011684FF0007292FAA2F2B2FA82F202F01B
:101574001F0221FA02F212F0010FBBD1012070BD4B
:10158400304B5B6803F00C03042B17D0FEF71EFFEF
:10159400801B41F288339842F2D9032070BD294B55
:1015A4005B6803F00C03082B08D0FEF70FFF801BC9
:1015B40041F288339842F2D9032070BD204B1B6856
:1015C40003F007039D420CD21D4A136823F007035E
:1015D4002B431360136803F007039D4201D00120DD
:1015E40070BD236813F0040F06D0164A536823F421
:1015F400E063E1680B435360236813F0080F07D0DE
:10160400104A536823F46053216943EAC1035360C9
:10161400FFF7F0FE0B4B5B6803F0F003F02292FA45
:10162400A2F2B2FA82F2D340074AD35CD840074B05
:1016340018600020FEF79CFE002070BD012070BDE4
:101644000020024000100240503E00080C00002020
:10165400014B1868704700BF0C000020F0B583B040
:101664000446036813F0010F18D1236813F0020F26
:1016740006D0454A536823F44043A1680B435360A2
:10168400236813F0100F7CD03F4A536823F480037F
:10169400E1680B435360002003B0F0BD3A4BDA69B4
:1016A40042F08052DA61DB6903F080530193019BBD
:1016B400364A136843F480731360FEF787FE0546C9
:1016C400324B1B6813F4807F06D1FEF77FFE401B6C
:1016D4006428F5D90320DFE72B4B1B6A13F440730E
:1016E4001DD0626802F44072934218D02648016A01
:1016F40021F440764FF4803393FAA3F2B2FA82F2E3
:10170400234D012745F8227093FAA3F3B3FA83F328
:10171400002245F82320066211F0010F07D11A4A6E
:10172400136A23F4407361680B4313629DE7FEF769
:101734004DFE054614E0144B1A6A022393FAA3F3F0
:10174400B3FA83F303F01F0322FA03F313F0010F38
:10175400E5D1FEF73BFE401B41F2883398420ED898
:10176400022393FAA3F293FAA3F3B3FA83F35B0984
:1017740043F00203022BDED0034B5A6ADDE7032059
:101784008AE7002088E700BF001002400070004094
:101794000004424284B001A880E80E00002004B096
:1017A4007047B0F840309BB243F43D43A0F840305A
:1017B40000207047B0F8403023F474535B045B0C92
:1017C400A0F84030002070470020704784B010B467
:1017D40002AC84E80E000123A0F840300023A0F8F6
:1017E4004030A0F84430A0F85030184610BC04B083
:1017F400704710B4CB78032B0FD8DFE803F0026EE8
:1018040055610A7830F822309BB223F4EC4323F07C
:10181400700343F4007320F822300A7830F8223041
:1018240023F0F0031B051B0D134343F4004343F063
:10183400800320F822308B7A002B40F0B2804B7862
:10184400002B57D0B0F850309BB20A7803EBC20398
:1018540000EB43038A8852085200C3F800240A7834
:1018640030F8223013F0400F0BD030F8223023F040
:10187400F0031B051B0D43F4004343F0C00320F8A1
:1018840022300A7830F822309BB223F4E04323F06C
:10189400400383F0200343F4004343F0800320F823
:1018A4002230002010BC70470A7830F822309BB2F6
:1018B40023F4EC4323F070039BB220F82230ACE70E
:1018C4000A7830F822309BB223F4EC4323F07003FF
:1018D40043F4C06320F822309FE70A7830F82230BE
:1018E4009BB223F4EC4323F0700343F4806320F8A9
:1018F400223092E7B0F850309BB20A7803EBC2036F
:10190400043300EB43038A8852085200C3F80024CE
:10191400B0F850309BB20A7803EBC203063300EBF5
:1019240043030C693E2C30D9C4F34F1214F01F0F3B
:1019340001D1013A92B26FEAC2626FEA524292B2A4
:10194400C3F800240A7830F8223013F4804F0BD007
:1019540030F8223023F0F0031B051B0D43F4404301
:1019640043F0800320F822300A7830F822309BB20A
:1019740023F4804323F0700383F4405343F400437F
:1019840043F0800320F822308BE7C4F34F0214F0B5
:10199400010F01D0013292B2920292B2C3F8002434
:1019A400D0E70A7830F8223023F4F8731B051B0DB6
:1019B40043F4014343F0800320F82230B0F8503060
:1019C4009BB20A7803EBC20300EB4303CA885208B4
:1019D4005200C3F80024B0F850309BB20A7803EBED
:1019E400C203043300EB43030A8952085200C3F8CC
:1019F40000244B78002B4BD10A7830F8223013F4B2
:101A0400804F0BD030F8223023F0F0031B051B0D60
:101A140043F4404343F0800320F822300A7830F83E
:101A2400223013F0400F0BD030F8223023F0F003B3
:101A34001B051B0D43F4004343F0C00320F8223080
:101A44000A7830F8223023F0F0031B051B0D43F411
:101A5400004343F0C00320F822300A7830F82230E3
:101A64009BB223F4804323F0700383F4405348F281
:101A74008004234320F822300A7830F822309BB2C5
:101A840023F4E04323F04003234320F8223008E703
:101A94000A7830F8223013F4804F0BD030F822301B
:101AA40023F0F0031B051B0D43F4404343F0800374
:101AB40020F822300A7830F8223013F0400F0BD08F
:101AC40030F8223023F0F0031B051B0D43F40043D0
:101AD40043F0C00320F822300A7830F8223023F093
:101AE400F0031B051B0D43F4404343F0800320F82F
:101AF40022300B7830F8232092B222F4E04222F014
:101B0400400248F28004224320F823200A7830F867
:101B140022309BB223F4804323F07003234320F844
:101B24002230BEE68B7A002B44D14B780BB30A7873
:101B340030F8223013F0400F0BD030F8223023F06D
:101B4400F0031B051B0D43F4004343F0C00320F8CE
:101B540022300A7830F822309BB223F4E04323F099
:101B6400400343F4004343F0800320F82230002074
:101B740070470A7830F8223013F4804F0BD030F8D5
:101B8400223023F0F0031B051B0D43F4404343F0C4
:101B9400800320F822300A7830F822309BB223F4F4
:101BA400804323F0700343F4004343F0800320F8A0
:101BB4002230DCE710B44B78002B4BD10A7830F894
:101BC400223013F4804F0BD030F8223023F0F0038E
:101BD4001B051B0D43F4404343F0800320F82230DF
:101BE4000A7830F8223013F0400F0BD030F822304E
:101BF40023F0F0031B051B0D43F4004343F0C00323
:101C040020F822300A7830F8223023F0F0031B0544
:101C14001B0D43F4004343F0C00320F822300B783B
:101C240030F8232092B222F4804222F0700248F26B
:101C34008004224320F823200A7830F822309BB213
:101C440023F4E04323F04003234320F82230002010
:101C540010BC70470A7830F8223013F4804F0BD050
:101C640030F8223023F0F0031B051B0D43F44043EE
:101C740043F0800320F822300A7830F8223013F041
:101C8400400F0BD030F8223023F0F0031B051B0D5E
:101C940043F4004343F0C00320F822300A7830F8BC
:101CA400223023F0F0031B051B0D43F4404343F0A3
:101CB400800320F822300B7830F8232092B222F4EB
:101CC400E04222F0400248F28004224320F823201C
:101CD4000A7830F822309BB223F4804323F0700357
:101CE400234320F82230B2E70A788AB14B7813BB39
:101CF40030F822309BB223F4804323F0700383F442
:101D0400805343F4004343F0800320F8223010E072
:101D140030F822309BB223F4804323F0400383F451
:101D2400805383F0100343F4004343F0800320F80E
:101D340022300020704730F822309BB223F4E04375
:101D440023F0400383F0100343F4004343F0800383
:101D540020F82230EDE74B781BB30A7830F82230B4
:101D640013F0400F0BD030F8223023F0F0031B05A2
:101D74001B0D43F4004343F0C00320F822300A78DB
:101D840030F822309BB223F4E04323F0400383F085
:101D9400300343F4004343F0800320F82230002052
:101DA40070470A7830F8223013F4804F0BD030F8A3
:101DB400223023F0F0031B051B0D43F4404343F092
:101DC400800320F822300A7830F822309BB223F4C2
:101DD400804323F0700383F4405343F4004343F0FF
:101DE400800320F82230DAE711B98023A0F84C30C0
:101DF400002070470020704700207047B0F844006E
:101E040080B270470020704701335B1000EB420240
:101E140002F5806263B110B40C78487844EA002477
:101E240022F8044B0231013B002BF5D110BC704762
:101E34007047F8B58A694C78012C35D00B699A4201
:101E440040F2F080D21A8A618A7A002A40F0FA803D
:101E5400B0F8502092B20C7802EBC402063200EBC8
:101E640042023E2B40F2E280C3F34F1413F01F0FE3
:101E740001D1013CA4B26FEAC4646FEA5444A4B231
:101E8400C2F800440A7830F822309BB223F480432D
:101E940023F0700383F4405343F4004343F080037E
:101EA40020F822300020F8BD0F69BA4226D9D21B8F
:101EB4008A610E4605468B7A23B30B7830F82320CB
:101EC40012F0400F6CD0002C39D1B0F8502092B2EF
:101ED40002EBC303063300EB43033E2F23D9C7F3BE
:101EE4004F1217F01F0F01D1013A92B26FEAC2628A
:101EF4006FEA524292B2C3F800242AE000238B61B5
:101F04001746D6E7BBB28A884969FFF77DFFB5F863
:101F140050309BB2327803EBC203023305EB430328
:101F2400C3F800742BE0C7F34F0217F0010F01D080
:101F3400013292B2920292B2C3F8002409E0B0F8DE
:101F4400502092B202EBC303023300EB4303C3F805
:101F540000743289BBB271692846FFF755FF737864
:101F6400002B4FD1327835F8223023F0F0031B05D3
:101F74001B0D43F4004343F0C00325F822303278AC
:101F840035F822309BB223F4E04323F0400383F07E
:101F9400300343F4004343F0800325F8223081E703
:101FA40024BBB0F8502092B202EBC303023300EB1F
:101FB40043033E2F0ED9C7F34F1217F01F0F01D161
:101FC400013A92B26FEAC2626FEA524292B2C3F825
:101FD400002415E0C7F34F0217F0010F01D00132BE
:101FE40092B2920292B2C3F8002409E0B0F85020F1
:101FF40092B202EBC303023300EB4303C3F8007451
:10200400F288A7E7012BBAD1327835F8223023F0D1
:10201400F0031B051B0D43F4404343F0800325F8F4
:102024002230ACE700238B6113460DE7C3F34F0462
:1020340013F0010F01D00134A4B2A402A4B2C2F877
:1020440000441FE7C4B9B0F8502092B20C7802EBF8
:10205400C402023200EB42023E2B29D9C3F34F14CF
:1020640013F01F0F01D1013CA4B26FEAC4646FEAFC
:102074005444A4B2C2F800444A788ABBB0F8502051
:1020840092B20C7802EBC402063200EB42023E2B01
:102094001AD9C3F34F1413F01F0F01D1013CA4B29A
:1020A4006FEAC4646FEA5444A4B2C2F80044E9E697
:1020B400C3F34F0413F0010F01D00134A4B2A402FE
:1020C400A4B2C2F80044D7E7C3F34F0413F0010FDE
:1020D40001D00134A4B2A402A4B2C2F80044D1E6EF
:1020E400012A7FF4CFAEB0F8502092B20C7802EB04
:1020F400C402023200EB4202C2F80034C2E60133E9
:102104005B1000EB420202F5806204E0106821F8E3
:10211400020B013B0432002BF8D17047FEE70000AC
:1021240008B503460C4A12685AB10B4A10680333C7
:1021340023F003030344094A934206D8064A136072
:1021440008BD0749044A1160EFE701F065F90C2363
:1021540003604FF0FF3008BDD4010020004C002084
:10216400DC0C002001230360014B0B60704700BFAF
:10217400040000200FB400B583B004AB53F8042B63
:1021840001938021064801F0A9F9002803DD0146E6
:10219400034800F037F803B05DF804EB04B070476F
:1021A400DC0100202DE9F04385B004460F46435678
:1021B4000BB10E461EE0042528462146ABBE04465C
:1021C400384605B0BDE8F08314F9011B04AA1A448B
:1021D40002F8101C0133AB42F6D304AA13440022C4
:1021E40003F8102CE9464FF0040840464946ABBEBC
:1021F4008046761B002EE3D03546102E28BF1025CE
:102204000023E8E708B5FFF7CDFF08BD08B500F0E7
:1022140099F8024B024A9A6008BD00BF00ED00E045
:102224000000000808B500F0B3F808BDF8B504468E
:102234000D4617461E462748FFF79CFF216826488F
:10224400FFF798FF61682548FFF794FFA1682448C9
:10225400FFF790FFE1682348FFF78CFF21692248CC
:10226400FFF788FF61692148FFF784FFA1692048CF
:10227400FFF780FFE1691F48FFF77CFF1E48FFF767
:1022840079FF29461D48FFF775FF1D4CE16A1D487B
:10229400FFF770FF216B1C48FFF76CFFE16B1B48D5
:1022A400FFF768FF15F0800F0AD115F4004F0CD129
:1022B4001748FFF75FFF06991648FFF75BFFF8BD65
:1022C40039461548FFF756FFEFE731461348FFF745
:1022D40051FFEDE7083D0008183D0008283D0008BF
:1022E400383D0008483D0008583D0008683D000896
:1022F400783D0008883D0008983D0008A43D00088A
:1023040000ED00E0B43D0008C43D0008D43D0008E1
:10231400043E00080C3E0008E43D0008F43D0008BB
:1023240083691A888A4201D0002070470268033A00
:10233400012A03D8023383610120704700207047CB
:10234400FEE700000F4B1A6842F001021A60596858
:102354000D4A0A405A601A6822F0847222F48032CC
:102364001A601A6822F480221A605A6822F4FE0263
:102374005A604FF41F029A604FF00062034B9A6058
:10238400704700BF001002400000FFF800ED00E0BD
:102394001F4B5B6803F00C03042B14D0082B16D0DE
:1023A4001BB11C4A1C4B1A6002E01A4A1A4B1A60F1
:1023B400174B5B68C3F30313184AD15C164A1368BE
:1023C400CB4013607047134A134B1A60F0E7104A6E
:1023D40053685268C3F38343023312F4803F0AD034
:1023E4000B4A526812F4003F0BD00D4A02FB03F370
:1023F400094A1360DCE70A4A02FB03F3064A136046
:10240400D6E7044A02FB03F3034A1360D0E700BF94
:102414000010024000127A000C000020503E000818
:1024240000093D0082B00A4B9A6942F020029A6189
:102434009A6902F020020092009A9A6942F004021A
:102444009A619B6903F004030193019B02B07047F6
:1024540000100240FEE7000000B595B001220A9288
:102464004FF480330B9300210C910E9202221192AF
:1024740012934FF4801313930AA8FEF7CBFC58BBB6
:102484000F23059302230693002307934FF48062DE
:1024940008920993012105A8FEF7F0FF00BB102361
:1024A40001934FF48003049301A8FFF7D7F8D8B938
:1024B400FFF7CEF80E4BA3FB00308009FDF7EAFFCF
:1024C4000420FDF7FDFF002211464FF0FF30FDF719
:1024D400A3FF15B05DF804FB93210648FFF7BAFF8C
:1024E400A1210448FFF7B6FFA8210248FFF7B2FF75
:1024F400D34D6210603E000810B59AB0FDF74CFF52
:10250400FFF7AAFFFFF78EFF00F066F800240134FE
:10251400E4B22246054901A800F090FFC1B201A827
:1025240000F09CF86420FDF757FFF0E7703E0008C8
:1025340000B583B01C4B9A6942F001029A619B6911
:1025440003F001030193019B0320FDF753FF0022D5
:1025540011466FF00B00FDF75FFF002211466FF08C
:102564000A00FDF759FF002211466FF00900FDF73C
:1025740053FF002211466FF00400FDF74DFF0022C7
:1025840011466FF00300FDF747FF002211466FF07C
:102594000100FDF741FF002211464FF0FF30FDF727
:1025A4003BFF03B05DF804FB001002407047FEE7F8
:1025B400FEE7FEE7FEE770477047704708B5FDF792
:1025C400FDFEFDF78EFF08BD08B50248FEF706FBC9
:1025D40008BD00BFB806002010B5094C0022094907
:1025E400204600F0F3F90849204600F006FA0749AE
:1025F400204600F0CBFE204600F006FA10BD00BFD6
:102604008C04002020000020540000201000002032
:10261400002070470020704710B5054C0146204645
:1026240000F0C3FE204600F0DDFE002010BD00BF18
:102634008C04002010B5064C00220649204600F008
:10264400ACFE0549204600F0B0FE002010BD00BFDE
:102654008C040020B4060020B0060020094BD3F8F7
:102664001832D3F814320BB10120704710B50A4662
:102674000146044C204600F090FE204600F09BFEEC
:1026840010BD00BF8C04002002680E4B9A4200D09B
:10269400704700B583B003F5DA33DA6942F4000217
:1026A400DA61DB6903F400030193019B0022114604
:1026B4001420FDF7B1FE1420FDF7E0FE03B05DF831
:1026C40004FB00BF005C004008B500F57B71D0F846
:1026D4001C0400F0B2F908BD08B500EB4113D3F8AF
:1026E4001C22D0F81C0400F0D5F908BD08B500EB95
:1026F4004113DA6BD0F81C0400F001FA08BD08B5E8
:10270400D0F81C0400F085FA08BD10B50446012178
:10271400D0F81C0400F06BFAD4F81C0400F048FA5A
:1027240010BD000010B50446D0F81C0400F062FA95
:10273400A36923B1024A136943F00603136110BD70
:1027440000ED00E008B5D0F81C0400F05CFA08BD08
:1027540010B504462048C0F81C44C4F820021F4B9E
:10276400036008234360022383600323C3600023C0
:102774008361C3610362FDF7B8FE30BB18230022F6
:102784001146D4F82002FEF72CFB582300228021A6
:10279400D4F82002FEF725FBC02300228121D4F8BF
:1027A4002002FEF71EFB4FF4887300220121D4F8A7
:1027B4002002FEF716FB4FF4807300228221D4F826
:1027C4002002FEF70EFB002010BD4FF48D7104486B
:1027D400FFF740FED2E700BFB8060020005C0040CF
:1027E400A43E000808B5D0F82002FDF7E9FE18B1B0
:1027F400022803D0022008BD002008BD012008BD26
:1028040010B51C4613462246D0F82002FDF703FFFC
:1028140018B1022803D0022010BD002010BD0120F1
:1028240010BD08B5D0F82002FDF71EFF18B102282C
:1028340003D0022008BD002008BD012008BD08B552
:10284400D0F82002FEF778FA18B1022803D002204B
:1028540008BD002008BD012008BD08B5D0F820023D
:10286400FEF798FA18B1022803D0022008BD002010
:1028740008BD012008BDD0F8202211F0800F06D138
:1028840001F07F0102EB411191F80A02704701F057
:102894007F0302EB431191F82A00704708B5D0F882
:1028A4002002FDF7A4FE18B1022803D0022008BDBF
:1028B400002008BD012008BD08B5D0F82002FDF7AE
:1028C4002CFF18B1022803D0022008BD002008BD47
:1028D400012008BD08B5D0F82002FDF7ECFE18B1C0
:1028E400022803D0022008BD002008BD012008BD35
:1028F40008B5D0F82002FDF709FF08BD004870476D
:102904005C0200207047704712230B800048704718
:102914003C00002004230B80004870475000002036
:1029240008B50A4628B10549054800F0E1FB03480B
:1029340008BD0249024800F0DBFBF8E7D80A002092
:10294400E83E000810B5044C0A462146034800F04E
:10295400CFFB204610BD00BFD80A0020D43E00089B
:1029640008B50A4628B10549054800F0C1FB0348EB
:1029740008BD0249024800F0BBFBF8E7D80A002072
:10298400003F000808B50A4628B10549054800F08B
:10299400AFFB034808BD0249024800F0A9FBF8E771
:1029A400D80A0020B83E000808B50A4628B10549EF
:1029B400054800F09DFB034808BD0249024800F0A9
:1029C40097FBF8E7D80A0020C43E000898B108B580
:1029D4000346D0F8140210B10020C3F8140209B160
:1029E400C3F810121846012380F8FC310270FFF777
:1029F400AFFE002008BD0220704719B1C0F81412C0
:102A0400002070470220704708B5FFF7EBFE002056
:102A140008BD08B5D0F8143223B11B68984718B123
:102A2400022008BD022008BD002008BD08B5D0F86A
:102A340014325B689847002008BD38B5044600F599
:102A44000275284600F00DF90123C4F8F431B4F8F6
:102A54000E32C4F8F83194F8081201F01F03012B68
:102A64000ED03BB1022B10D001F080012046FFF7BD
:102A7400E6FE03E02946204600F06EFA002038BD49
:102A84002946204600F08CFAF8E72946204600F053
:102A9400A3FAF3E710B5044619BB1346D0F8F421A2
:102AA400032A27D1D0F80C11D0F8102191420BD869
:102AB400D0F814321B691BB190F8FC21032A0ED004
:102AC400204600F05EFB15E0891AC0F80C118A421A
:102AD40028BF0A4692B2194600F04BFB0AE0984719
:102AE400EEE70A46D0F814329B691BB190F8FC114A
:102AF400032901D0002010BD11469847FAE710B50C
:102B04000446002947D11346D0F8F421022A05D0FF
:102B140094F80032012B3AD0002010BDC169026A3A
:102B2400914217D88169B1FBF2F302FB13132BB95D
:102B34008A4203D8D0F8F831994218D3D4F8143221
:102B4400DB681BB194F8FC21032A1DD0204600F059
:102B540023FBDDE78A1AC26192B2194600F0F2FA49
:102B640000231A4619462046FFF7B4FED0E7002298
:102B7400114600F0E7FA0021C4F8F8110B460A46A2
:102B84002046FFF7A7FEC3E720469847DEE7002369
:102B940084F80032C0E70A46D0F814325B69002B8F
:102BA400BAD090F8FC110329B6D111469847B3E77F
:102BB40038B50446402300221146FFF721FE402584
:102BC400C4F810512B46002280212046FFF718FE3E
:102BD4002562012384F8FC31D4F818322BB1D4F8DF
:102BE40014325B68217920469847002038BD01746F
:102BF4000020704790F8FC3180F8FD31042380F800
:102C0400FC310020704790F8FD3180F8FC31002041
:102C1400704708B590F8FC31032B01D0002008BDA3
:102C2400D0F81432DB69002BF8D09847F6E700237C
:102C340002E00133DBB201300278002AF9D11846F0
:102C440070474B88012B00D0704710B50446C0F87C
:102C54000432D0F814329B689847204600F091FA69
:102C640010BD0B7803704B7843708B78CA7803EBF4
:102C7400022343800B794A7903EB022383808B7907
:102C8400CA7903EB0223C380704710B50446802140
:102C9400FFF7D5FD00212046FFF7D1FD10BD30B56B
:102CA40083B004460D464A88130A013B062B00F202
:102CB4008180DFE803F00413277F7F637000D0F87E
:102CC40010321B680DF10601007C9847BDF8062000
:102CD40012B1EB88002B71D103B030BD037C43B932
:102CE400D0F814329B6A0DF1060098470223437012
:102CF400ECE7D0F81432DB6A0DF1060098470223A2
:102D04004370E3E7D2B2052A34D8DFE802F0030BBC
:102D1400131B232BD0F810325B680DF10601007CE5
:102D24009847D3E7D0F810329B680DF10601007C78
:102D34009847CBE7D0F81032DB680DF10601007C30
:102D44009847C3E7D0F810321B690DF10601007CE7
:102D54009847BBE7D0F810325B690DF10601007C9F
:102D64009847B3E7D0F810329B690DF10601007C57
:102D74009847ABE72946FFF788FFADE7037C33B9F3
:102D8400D0F814325B6B0DF1060098479EE7294694
:102D9400FFF77BFFA0E7037C43B9D0F814321B6B29
:102DA4000DF106009847072343708FE72946FFF784
:102DB4006CFF91E72946FFF768FF8DE79A4228BF29
:102DC4001A46ADF806200146204600F0AEF983E726
:102DD40038B504468B88E3B9CB88D3B98D7805F030
:102DE4007F0590F8FC31032B0CD080F8FE51294666
:102DF400FFF754FD204600F0C4F935B1022384F8EE
:102E0400FC3138BDFFF741FF38BD012384F8FC31A4
:102E140038BD2046FFF739FF38BD000038B50446F9
:102E24000D468978254B1970012909D890F8FC3191
:102E3400022B09D0032B1CD02946FFF726FF38BDEF
:102E44002946FFF722FF38BD81B14160032380F892
:102E5400FC31FFF7DEFD022803D0204600F091F993
:102E640038BD29462046FFF710FF38BD00F089F928
:102E740038BD89B1436899421DD0D9B2FFF7D6FD58
:102E84000E4B197861602046FFF7C3FD02280DD070
:102E9400204600F076F938BD022380F8FC31416009
:102EA400FFF7C4FD204600F06CF938BD29462046E2
:102EB400FFF7EBFE38BD00F064F938BD7C04002058
:102EC40008B5CB88012B08D190F8FC31022B07D030
:102ED400032B0DD0FFF7D9FE08BDFFF7D6FE08BDC2
:102EE4000146002341F8083F012200F01EF908BD05
:102EF4000122011D00F019F908BD08B590F8FC3154
:102F0400023B012B0CD80123C360D0F804320BB16F
:102F14000323C360022200F10C0100F006F908BD8E
:102F2400FFF7B3FE08BD10B5044690F8FC31023B30
:102F3400012B0ED84B88012B00D010BD0023C0F804
:102F44000432D0F814329B689847204600F019F9EF
:102F540010BDFFF79AFEF0E708B54B78092B1CD893
:102F6400DFE803F012181B151B09051B0F0CFFF7F4
:102F740096FE002008BDFFF72BFFFAE7FFF74EFF90
:102F8400F7E7FFF79DFFF4E7FFF7B7FFF1E7FFF778
:102F940058FEEEE7FFF7C7FFEBE7FFF776FEE8E73B
:102FA40038B504460D4690F8FC31032B11D10B794A
:102FB400012B03D9FFF769FE002038BDD0F8143285
:102FC4009B689847EB88002BF6D1204600F0D9F88F
:102FD400F2E7FFF75AFEEFE738B505460C468A8854
:102FE4000B7803F06003202B11D0D1B26378012B4E
:102FF4002BD0002B4DD0032B0DD190F8FC31022B9C
:103004000BD0032B10D02146FFF73FFE03E0D0F88E
:1030140014329B689847002038BD0029FBD08029D2
:10302400F9D0FFF70CFCF6E7638823B919B18029BE
:1030340001D0FFF704FCD5F814329B6821462846DA
:103044009847284600F09DF8E5E790F8FC31022BFC
:1030540005D0032B0AD02146FFF717FEDBE7002932
:10306400D9D08029D7D0FFF7EAFBD4E76388002BB7
:10307400D1D111F07F0F03D1284600F082F8CAE7BE
:10308400FFF7EBFBD5F814329B6821462846984796
:10309400F2E790F8FC31022B05D0032B09D021462E
:1030A400FFF7F3FDB7E711F07F0FB4D0FFF7C7FBCD
:1030B400B1E712F0800F11D101F07F04103400EB5E
:1030C400041404342846FFF7D6FB70B101232360AF
:1030D40002222146284600F028F89CE701F07F04EC
:1030E400013400EB04140434ECE700232360EFE71D
:1030F400D0B170B50D4616460446FFF798FD013071
:10310400400080B23080287003236B70022307E0F4
:103114005A1CD2B20134E9540233DBB20021A9545F
:1031240021780029F4D170BD704710B513460222EE
:10313400C0F8F4218361C3610A460021FFF7BCFB98
:10314400002010BD08B513460A460021FFF7B4FB62
:10315400002008BD10B513460322C0F8F421C0F8BE
:103164000831C0F80C310A460021FFF7B3FB0020F8
:1031740010BD08B513460A460021FFF7ABFB00203B
:1031840008BD08B50423C0F8F43100231A461946D3
:10319400FFF792FB002008BD08B50523C0F8F43101
:1031A40000231A461946FFF795FB002008BDD0F806
:1031B40018321BB10020C3F8140270470220704774
:1031C40010B5D0F81842D0F81C325BB194F8000264
:1031D400FF2807D09B6894F8012221469847FF23D3
:1031E40084F80032002010BD432303800048704758
:1031F4008C0000204323038000487047D000002047
:103204004323038000487047200100200A230380E1
:10321400004870471401002038B50446D0F818520D
:10322400FFF766FBC5F80C02D4F818324BB1D4F89A
:103234001C32DB6805F50371D5F8040298470020B9
:1032440038BD022038BD000070B505460C46D0F8E4
:1032540018620B7813F0600224D0202A25D1CA8882
:10326400CAB113F0800F0AD14B7886F80032CB88AC
:1032740086F80132CA883146FFF76CFF15E0D0F8B2
:103284001C329B68314660789847E288314628466C
:10329400FFF74BFF09E0D0F81C329B680022487806
:1032A400984702E04B780A2B01D0002070BD012220
:1032B4000149FFF73AFFF8E77D04002010B5044602
:1032C4008121FFF7AEFA01212046FFF7AAFA8221F5
:1032D4002046FFF7A6FAD4F8183253B1D4F81C32BA
:1032E4005B689847D4F81802FFF70CFB0023C4F876
:1032F4001832002010BD38B50446037C73BB4FF46C
:10330400007302228121FFF77BFA4FF4007302223B
:1033140001212046FFF774FA082303228221204664
:10332400FFF76EFA4FF40770FFF7E8FA0546C4F8A2
:10333400180248B3D4F81C321B6898470023C5F818
:103344001432C5F81832237CA3B14023D5F80422E3
:1033540001212046FFF7BEFA002038BD4023022297
:103364008121FFF74DFA4023022201212046FFF775
:1033740047FAD1E74FF40073D5F80422012120461F
:10338400FFF7A8FA002038BD012038BD19B1C0F8F4
:103394001C120020704702207047D0F81832C3F87E
:1033A4000812C3F8102200207047D0F81832C3F86E
:1033B400041200207047D0F818228AB108B5D2F858
:1033C40014320BB1012008BD0123C2F81432B2F843
:1033D4001032D2F808228121FFF76EFA002008BDCE
:1033E40002207047D0F818229AB108B5037C3BB18B
:1033F4004023D2F804220121FFF76CFA002008BD13
:103404004FF40073D2F804220121FFF763FA00207D
:1034140008BD022070470000014B1868704700BFC8
:103424006401002010B5431E0A44914200D110BD2E
:1034340011F8014B03F8014FF7E700000EB44FF405
:10344400027100B59CB0ADF814106FF00041049106
:1034540007914FF6FF711DAB02900690084853F890
:10346400042BADF81610006802A9019300F0A0F82F
:103474000022029B1A701CB05DF804EB03B0704785
:103484006401002030B5141E05469BB0184605DAC9
:103494008B234FF0FF302B601BB030BD4FF4027311
:1034A400ADF80C300CBF234604F1FF3302930593AF
:1034B4004FF6FF7300910491ADF80E3002461E9B47
:1034C4006946284600F074F8431CBCBF8B232B606C
:1034D400002CE1D00022009B1A70DDE707B50093B1
:1034E40013460A46014603480068FFF7CBFF03B0C2
:1034F4005DF804FB640100202DE9F0478E688246E4
:103504009E420C469146984635D88A8912F4906FAB
:1035140031D00223256809696F1A656905EB4505F1
:1035240095FBF3F508F101033B449D4238BF1D466A
:10353400530531D5294600F03BFB064650B90C2310
:10354400CAF80030A3894FF0FF3043F04003A38151
:10355400BDE8F0873A462169FFF764FFA38923F4A5
:10356400906343F08003A38126613E44266046466F
:103574006561ED1BA560464528BF4646494632466F
:10358400206800F0AFFAA36800209B1BA3602368A7
:103594001E442660BDE8F0872A4600F067FB064615
:1035A4000028E1D12169504600F0B6FAC7E70000CF
:1035B4002DE9F04F9DB003938B8980461C060D4680
:1035C40016460FD50B696BB9402100F0F1FA28605B
:1035D400286128B90C23C8F800304FF0FF30C4E04C
:1035E40040236B610023099320238DF82930302375
:1035F4004FF0010B8DF82A3037463C4614F8013B56
:10360400002B3CD1B7EB060A0BD053463246294671
:103614004046FFF771FF013000F0A280099B53443C
:1036240009933B78002B00F09B8000234FF0FF327E
:1036340004930793059206938DF853301A93052249
:103644002178504800F040FA671C049BD8B9D90689
:1036540044BF20228DF853201A0744BF2B228DF833
:10366400532022782A2A16D000210A20079A2746B6
:103674003B780134303B092B50D9C9B111E0252BDB
:10368400C0D02746B9E73F4A3C46801A0BFA00F0FF
:1036940018430490D3E7039A111D12680391002A7A
:1036A40001DB079204E0524243F0020307920493C1
:1036B4003B782E2B0DD17B78791C2A2B32D1039B9E
:1036C40002371A1D1B680392002BB8BF4FF0FF335B
:1036D40005932D4C03223978204600F0F5F938B1D2
:1036E4004023001B03FA00F0049B013703430493B7
:1036F4003978062225487E1C8DF8281000F0E4F95C
:10370400002835D0224BFBB9039B073323F0070372
:1037140008330393099B4B4409936DE700FB023282
:103724000121A4E700230A24184605930F463A789A
:103734000131303A092A03D9002BCAD00590C8E7D1
:1037440004FB00200123F1E703AB00932A46114B4D
:1037540004A94046AFF30080B0F1FF3F8146D9D1C0
:10376400AB895B063FF539AF09981DB0BDE8F08F12
:1037740003AB00932A46074B04A9404600F084F8A3
:10378400EAE700BF103F0008163F00081A3F000890
:1037940000000000FD3400082DE9F04791461F4663
:1037A4008A680B6906469342B8BF1346C9F80030CD
:1037B40091F843200C46DDF8208012B10133C9F89A
:1037C40000302368990642BFD9F800300233C9F8A3
:1037D4000030256815F0060507D104F1190AE368DD
:1037E400D9F800209B1A9D422ADB94F843302268C2
:1037F400003318BF012392062FD404F14302394643
:103804003046C047013022D02368E56803F0060340
:10381400042B18BF0025D9F800204FF0000908BF79
:10382400AD1AA368226908BF25EAE5759342C4BFAF
:103834009B1AED181A344D451BD10020BDE8F087C2
:103844000123524639463046C047013003D14FF078
:10385400FF30BDE8F0870135C1E73020E11881F879
:1038640043005A1C94F845102244023382F8431052
:10387400C3E70123224639463046C0470130E6D02B
:1038840009F10109D7E700002DE9F04317460A7E44
:1038940085B06E2A984606460C460C9B01F1430EF1
:1038A40000F0BC801AD8632A2ED00AD8002A00F06F
:1038B400C880582A00F08A8004F1420584F8422026
:1038C4002AE0642A01D0692AF6D121681A6811F025
:1038D400800F23D0111D1960136827E0732A00F0AC
:1038E400B48008D86F2A2AD0702AE5D10A6842F039
:1038F40020020A6003E0752A21D0782ADCD17822DC
:103904006F4984F8452064E01A6801F14205111DED
:103914001960136884F842300123A3E011F0400FCA
:1039240002F104011960D7D0B2F90030002B03DA98
:103934002D225B4284F8432062490A2217E0206862
:10394400196810F0800F03D0081D18600B6806E09A
:1039540010F0400F01F104001860F7D00B886F2AB3
:1039640014BF0A2208225749002084F843006568DE
:10397400002DA560C0F29C80206820F00400206027
:10398400002B3FD1002D40F095807546082A0BD1BD
:103994002368DA0708D5236962689A42DEBF3023B8
:1039A40005F8013C05F1FF35AEEB05032361CDF8C5
:1039B40000803B4603AA21463046FFF7EDFE013066
:1039C40055D14FF0FF3005B0BDE8F08381F84520B4
:1039D4003C492268186812F0800F00F104051D604C
:1039E40001D0036802E05506FBD50388D00744BF25
:1039F40042F0200222601BB9226822F020022260D9
:103A04001022B1E77546B3FBF2F002FB1033CB5C36
:103A140005F8013D03460028F5D1B7E708681A68A0
:103A240010F0800F496904D0101D186013681960E4
:103A340007E010F0400F02F1040018601368F6D09C
:103A44001980002375462361B1E71A68111D1960B6
:103A5400156800216268284600F036F808B1401B5A
:103A6400606063682361002384F843309FE723691F
:103A74002A4639463046C0470130A2D023689B0706
:103A840007D5002504F11909E368039A9B1A9D429E
:103A940005DBE068039B9842B8BF184693E701230F
:103AA4004A4639463046C04701308AD00135EBE7F3
:103AB400002BA7D10B7804F1420584F8423065E766
:103AC400323F0008213F000810B5C9B202449042B9
:103AD400034601D1002010BD1C7801308C42F6D180
:103AE400184610BD884210B501EB020303D8421EEC
:103AF40099420CD110BD9842F9D28118D21AD342FE
:103B040000D110BD13F8014D01F8014DF7E711F88C
:103B1400014B02F8014FEBE738B50546002943D0C5
:103B240051F8043C0C1F002BB8BFE41800F0D4F883
:103B34001E4A1368104633B9636014602846BDE812
:103B4400384000F0CAB8A3420BD9216862189342E6
:103B540001BF1A685B685218226063600460EDE775
:103B640013465A680AB1A242FAD919685818A042F1
:103B74000BD120680144581882421960DED11068C4
:103B84005268014419605A60D8E702D90C232B60AB
:103B9400D4E7206821188A4201BF116852680918C5
:103BA400216062605C60C9E738BD00BF800400200A
:103BB40070B5CD1C25F0030508350C2D38BF0C2538
:103BC400002D064601DBA94203D90C2333600020F3
:103BD40070BD00F081F8234A1468214691B9224C43
:103BE40023681BB9304600F067F820602946304648
:103BF40000F062F8431C26D10C233046336000F0F9
:103C04006CF8E4E70B685B1B1AD40B2B0FD90B6021
:103C1400CC18CD50304600F060F804F10B00231DA1
:103C240020F00700C31A1BD05A42E25070BD8C42E8
:103C34000BBF63684B681360636018BF0C46E9E709
:103C44000C464968CAE7C41C24F00304A04205D00A
:103C5400211A304600F030F80130CDD02560D9E784
:103C640070BD00BF8004002084040020F8B507461E
:103C740014460E4621B91146BDE8F840FFF798BF37
:103C840022B9FFF749FF25462846F8BD00F026F87B
:103C940084420FD921463846FFF78AFF054600289B
:103CA400F2D031462246FFF7BDFB31463846FFF7D6
:103CB40033FFE9E73546E7E738B50023054C054609
:103CC40008462360FEF72CFA431C02D1236803B193
:103CD4002B6038BD880400207047704751F8040CED
:103CE4000028A0F10400BCBF0B58C01870470000A6
:103CF40002030405060708090A0B0C0D0E0F101029
:103D040001020000537461636B206672616D653A51
:103D14000A000000205230203D2020253038580A67
:103D240000000000205231203D2020253038580A60
:103D340000000000205232203D2020253038580A4F
:103D440000000000205233203D2020253038580A3E
:103D54000000000020523132203D20253038580A1E
:103D640000000000204C52203D2020253038580A05
:103D740000000000205043203D2020253038580A00
:103D84000000000020505352203D20253038580AAE
:103D9400000000004653522F4641523A0A000000E8
:103DA4002043465352203D2020253038580A000035
:103DB4002048465352203D2020253038580A000020
:103DC4002044465352203D2020253038580A000014
:103DD4002041465352203D2020253038580A000007
:103DE400204D4D464152203D20253038580A0000D0
:103DF4002042464152203D2020253038580A0000F8
:103E04004D6973630A000000204C522F4558435FEC
:103E140052455455524E3D20253038580A00000072
:103E24005B486172644661756C745D0A0000000051
:103E34005B4275734661756C745D0A005B55736112
:103E440067654661756C745D0A000000000000003F
:103E54000000000001020304060708092E2E2F7338
:103E640072632F6D61696E2E630000005B415747DA
:103E7400455320456E67656E68617269615D2054C3
:103E84006573742055534220617320434443202FAB
:103E940020436F756E7465723D25640A0D00000041
:103EA4002E2E2F7372632F757362645F636F6E6659
:103EB4002E63000043444320436F6E66696700002D
:103EC40043444320496E7465726661636500000073
:103ED40041574745535F456E67656E686172696116
:103EE4000000000053544D333220566972747561DA
:103EF4006C20436F6D506F727400000030303030AE
:103F0400303030303030314100000000232D302B70
:103F14002000686C4C0065666745464700303132C6
:103F2400333435363738394142434445460030311D
:0F3F34003233343536373839616263646566007D
:103F440078563412D80100200000000000A24A0470
:103F54003926000815260008192600081D26000821
:103F64000D290008192900084929000825290008F5
:103F74006529000889290008AD29000812010002FA
:103F84000202004083044057000201020301FFFFC4
:103F940004030904FB320008C13200084D32000852
:103FA40000000000C5310008B33100081D320008CC
:103FB400000000000000000000000000F9310008CB
:103FC400ED310008053200081132000809024300EF
:103FD400020100C0320904000001020201000524AC
:103FE4000010010524010001042402020524060036
:103FF400010705820308001009040100020A0000F9
:10400400000705010240000007058102400000FF8F
:1040140009024300020100C0320904000001020247
:1040240001000524001001052401000104240202FA
:104034000524060001070582030800100904010095
:10404400020A0000000705010200020007058102C0
:10405400000200FF0A060002000000400100FFFF0A
:1040640009074300020104C03209040000010202EE
:1040740001000524001001052401000104240202AA
:104084000524060001070582030800FF0904010056
:10409400020A000000070501024000000705810232
:1040A400400000FF68010020000000000000000044
:1040B40000000000000000000000000000000000FC
:1040C40000000000000000000000000000000000EC
:1040D40000000000000000000000000000000000DC
:1040E40000000000000000000000000000000000CC
:1040F40000000000000000000000000000000000BC
:0C4104000000000000000000325476981B
:040000050800010DE1
:00000001FF
